{
  "address": "0xa1003f2353e70B8be6B9AEDF9410f3F6551aB26c",
  "abi": [
    {
      "inputs": [
        {
          "internalType": "address",
          "name": "defaultAdmin",
          "type": "address"
        },
        {
          "internalType": "address",
          "name": "pauser",
          "type": "address"
        },
        {
          "internalType": "address",
          "name": "minter",
          "type": "address"
        }
      ],
      "stateMutability": "nonpayable",
      "type": "constructor"
    },
    {
      "inputs": [],
      "name": "AccessControlBadConfirmation",
      "type": "error"
    },
    {
      "inputs": [
        {
          "internalType": "address",
          "name": "account",
          "type": "address"
        },
        {
          "internalType": "bytes32",
          "name": "neededRole",
          "type": "bytes32"
        }
      ],
      "name": "AccessControlUnauthorizedAccount",
      "type": "error"
    },
    {
      "inputs": [],
      "name": "CheckpointUnorderedInsertion",
      "type": "error"
    },
    {
      "inputs": [],
      "name": "ECDSAInvalidSignature",
      "type": "error"
    },
    {
      "inputs": [
        {
          "internalType": "uint256",
          "name": "length",
          "type": "uint256"
        }
      ],
      "name": "ECDSAInvalidSignatureLength",
      "type": "error"
    },
    {
      "inputs": [
        {
          "internalType": "bytes32",
          "name": "s",
          "type": "bytes32"
        }
      ],
      "name": "ECDSAInvalidSignatureS",
      "type": "error"
    },
    {
      "inputs": [
        {
          "internalType": "uint256",
          "name": "timepoint",
          "type": "uint256"
        },
        {
          "internalType": "uint48",
          "name": "clock",
          "type": "uint48"
        }
      ],
      "name": "ERC5805FutureLookup",
      "type": "error"
    },
    {
      "inputs": [],
      "name": "ERC6372InconsistentClock",
      "type": "error"
    },
    {
      "inputs": [
        {
          "internalType": "address",
          "name": "sender",
          "type": "address"
        },
        {
          "internalType": "uint256",
          "name": "tokenId",
          "type": "uint256"
        },
        {
          "internalType": "address",
          "name": "owner",
          "type": "address"
        }
      ],
      "name": "ERC721IncorrectOwner",
      "type": "error"
    },
    {
      "inputs": [
        {
          "internalType": "address",
          "name": "operator",
          "type": "address"
        },
        {
          "internalType": "uint256",
          "name": "tokenId",
          "type": "uint256"
        }
      ],
      "name": "ERC721InsufficientApproval",
      "type": "error"
    },
    {
      "inputs": [
        {
          "internalType": "address",
          "name": "approver",
          "type": "address"
        }
      ],
      "name": "ERC721InvalidApprover",
      "type": "error"
    },
    {
      "inputs": [
        {
          "internalType": "address",
          "name": "operator",
          "type": "address"
        }
      ],
      "name": "ERC721InvalidOperator",
      "type": "error"
    },
    {
      "inputs": [
        {
          "internalType": "address",
          "name": "owner",
          "type": "address"
        }
      ],
      "name": "ERC721InvalidOwner",
      "type": "error"
    },
    {
      "inputs": [
        {
          "internalType": "address",
          "name": "receiver",
          "type": "address"
        }
      ],
      "name": "ERC721InvalidReceiver",
      "type": "error"
    },
    {
      "inputs": [
        {
          "internalType": "address",
          "name": "sender",
          "type": "address"
        }
      ],
      "name": "ERC721InvalidSender",
      "type": "error"
    },
    {
      "inputs": [
        {
          "internalType": "uint256",
          "name": "tokenId",
          "type": "uint256"
        }
      ],
      "name": "ERC721NonexistentToken",
      "type": "error"
    },
    {
      "inputs": [],
      "name": "EnforcedPause",
      "type": "error"
    },
    {
      "inputs": [],
      "name": "ExpectedPause",
      "type": "error"
    },
    {
      "inputs": [
        {
          "internalType": "address",
          "name": "account",
          "type": "address"
        },
        {
          "internalType": "uint256",
          "name": "currentNonce",
          "type": "uint256"
        }
      ],
      "name": "InvalidAccountNonce",
      "type": "error"
    },
    {
      "inputs": [],
      "name": "InvalidShortString",
      "type": "error"
    },
    {
      "inputs": [
        {
          "internalType": "uint8",
          "name": "bits",
          "type": "uint8"
        },
        {
          "internalType": "uint256",
          "name": "value",
          "type": "uint256"
        }
      ],
      "name": "SafeCastOverflowedUintDowncast",
      "type": "error"
    },
    {
      "inputs": [
        {
          "internalType": "string",
          "name": "str",
          "type": "string"
        }
      ],
      "name": "StringTooLong",
      "type": "error"
    },
    {
      "inputs": [
        {
          "internalType": "uint256",
          "name": "expiry",
          "type": "uint256"
        }
      ],
      "name": "VotesExpiredSignature",
      "type": "error"
    },
    {
      "anonymous": false,
      "inputs": [
        {
          "indexed": true,
          "internalType": "address",
          "name": "owner",
          "type": "address"
        },
        {
          "indexed": true,
          "internalType": "address",
          "name": "approved",
          "type": "address"
        },
        {
          "indexed": true,
          "internalType": "uint256",
          "name": "tokenId",
          "type": "uint256"
        }
      ],
      "name": "Approval",
      "type": "event"
    },
    {
      "anonymous": false,
      "inputs": [
        {
          "indexed": true,
          "internalType": "address",
          "name": "owner",
          "type": "address"
        },
        {
          "indexed": true,
          "internalType": "address",
          "name": "operator",
          "type": "address"
        },
        {
          "indexed": false,
          "internalType": "bool",
          "name": "approved",
          "type": "bool"
        }
      ],
      "name": "ApprovalForAll",
      "type": "event"
    },
    {
      "anonymous": false,
      "inputs": [
        {
          "indexed": false,
          "internalType": "uint256",
          "name": "_fromTokenId",
          "type": "uint256"
        },
        {
          "indexed": false,
          "internalType": "uint256",
          "name": "_toTokenId",
          "type": "uint256"
        }
      ],
      "name": "BatchMetadataUpdate",
      "type": "event"
    },
    {
      "anonymous": false,
      "inputs": [
        {
          "indexed": true,
          "internalType": "address",
          "name": "delegator",
          "type": "address"
        },
        {
          "indexed": true,
          "internalType": "address",
          "name": "fromDelegate",
          "type": "address"
        },
        {
          "indexed": true,
          "internalType": "address",
          "name": "toDelegate",
          "type": "address"
        }
      ],
      "name": "DelegateChanged",
      "type": "event"
    },
    {
      "anonymous": false,
      "inputs": [
        {
          "indexed": true,
          "internalType": "address",
          "name": "delegate",
          "type": "address"
        },
        {
          "indexed": false,
          "internalType": "uint256",
          "name": "previousVotes",
          "type": "uint256"
        },
        {
          "indexed": false,
          "internalType": "uint256",
          "name": "newVotes",
          "type": "uint256"
        }
      ],
      "name": "DelegateVotesChanged",
      "type": "event"
    },
    {
      "anonymous": false,
      "inputs": [],
      "name": "EIP712DomainChanged",
      "type": "event"
    },
    {
      "anonymous": false,
      "inputs": [
        {
          "indexed": false,
          "internalType": "uint256",
          "name": "_tokenId",
          "type": "uint256"
        }
      ],
      "name": "MetadataUpdate",
      "type": "event"
    },
    {
      "anonymous": false,
      "inputs": [
        {
          "indexed": false,
          "internalType": "address",
          "name": "account",
          "type": "address"
        }
      ],
      "name": "Paused",
      "type": "event"
    },
    {
      "anonymous": false,
      "inputs": [
        {
          "indexed": true,
          "internalType": "bytes32",
          "name": "role",
          "type": "bytes32"
        },
        {
          "indexed": true,
          "internalType": "bytes32",
          "name": "previousAdminRole",
          "type": "bytes32"
        },
        {
          "indexed": true,
          "internalType": "bytes32",
          "name": "newAdminRole",
          "type": "bytes32"
        }
      ],
      "name": "RoleAdminChanged",
      "type": "event"
    },
    {
      "anonymous": false,
      "inputs": [
        {
          "indexed": true,
          "internalType": "bytes32",
          "name": "role",
          "type": "bytes32"
        },
        {
          "indexed": true,
          "internalType": "address",
          "name": "account",
          "type": "address"
        },
        {
          "indexed": true,
          "internalType": "address",
          "name": "sender",
          "type": "address"
        }
      ],
      "name": "RoleGranted",
      "type": "event"
    },
    {
      "anonymous": false,
      "inputs": [
        {
          "indexed": true,
          "internalType": "bytes32",
          "name": "role",
          "type": "bytes32"
        },
        {
          "indexed": true,
          "internalType": "address",
          "name": "account",
          "type": "address"
        },
        {
          "indexed": true,
          "internalType": "address",
          "name": "sender",
          "type": "address"
        }
      ],
      "name": "RoleRevoked",
      "type": "event"
    },
    {
      "anonymous": false,
      "inputs": [
        {
          "indexed": true,
          "internalType": "address",
          "name": "from",
          "type": "address"
        },
        {
          "indexed": true,
          "internalType": "address",
          "name": "to",
          "type": "address"
        },
        {
          "indexed": true,
          "internalType": "uint256",
          "name": "tokenId",
          "type": "uint256"
        }
      ],
      "name": "Transfer",
      "type": "event"
    },
    {
      "anonymous": false,
      "inputs": [
        {
          "indexed": false,
          "internalType": "address",
          "name": "account",
          "type": "address"
        }
      ],
      "name": "Unpaused",
      "type": "event"
    },
    {
      "inputs": [],
      "name": "CLOCK_MODE",
      "outputs": [
        {
          "internalType": "string",
          "name": "",
          "type": "string"
        }
      ],
      "stateMutability": "pure",
      "type": "function"
    },
    {
      "inputs": [],
      "name": "DEFAULT_ADMIN_ROLE",
      "outputs": [
        {
          "internalType": "bytes32",
          "name": "",
          "type": "bytes32"
        }
      ],
      "stateMutability": "view",
      "type": "function"
    },
    {
      "inputs": [],
      "name": "MINTER_ROLE",
      "outputs": [
        {
          "internalType": "bytes32",
          "name": "",
          "type": "bytes32"
        }
      ],
      "stateMutability": "view",
      "type": "function"
    },
    {
      "inputs": [],
      "name": "PAUSER_ROLE",
      "outputs": [
        {
          "internalType": "bytes32",
          "name": "",
          "type": "bytes32"
        }
      ],
      "stateMutability": "view",
      "type": "function"
    },
    {
      "inputs": [
        {
          "internalType": "address",
          "name": "to",
          "type": "address"
        },
        {
          "internalType": "uint256",
          "name": "tokenId",
          "type": "uint256"
        }
      ],
      "name": "approve",
      "outputs": [],
      "stateMutability": "nonpayable",
      "type": "function"
    },
    {
      "inputs": [
        {
          "internalType": "address",
          "name": "owner",
          "type": "address"
        }
      ],
      "name": "balanceOf",
      "outputs": [
        {
          "internalType": "uint256",
          "name": "",
          "type": "uint256"
        }
      ],
      "stateMutability": "view",
      "type": "function"
    },
    {
      "inputs": [
        {
          "internalType": "uint256",
          "name": "tokenId",
          "type": "uint256"
        }
      ],
      "name": "burn",
      "outputs": [],
      "stateMutability": "nonpayable",
      "type": "function"
    },
    {
      "inputs": [],
      "name": "clock",
      "outputs": [
        {
          "internalType": "uint48",
          "name": "",
          "type": "uint48"
        }
      ],
      "stateMutability": "view",
      "type": "function"
    },
    {
      "inputs": [
        {
          "internalType": "address",
          "name": "delegatee",
          "type": "address"
        }
      ],
      "name": "delegate",
      "outputs": [],
      "stateMutability": "nonpayable",
      "type": "function"
    },
    {
      "inputs": [
        {
          "internalType": "address",
          "name": "delegatee",
          "type": "address"
        },
        {
          "internalType": "uint256",
          "name": "nonce",
          "type": "uint256"
        },
        {
          "internalType": "uint256",
          "name": "expiry",
          "type": "uint256"
        },
        {
          "internalType": "uint8",
          "name": "v",
          "type": "uint8"
        },
        {
          "internalType": "bytes32",
          "name": "r",
          "type": "bytes32"
        },
        {
          "internalType": "bytes32",
          "name": "s",
          "type": "bytes32"
        }
      ],
      "name": "delegateBySig",
      "outputs": [],
      "stateMutability": "nonpayable",
      "type": "function"
    },
    {
      "inputs": [
        {
          "internalType": "address",
          "name": "account",
          "type": "address"
        }
      ],
      "name": "delegates",
      "outputs": [
        {
          "internalType": "address",
          "name": "",
          "type": "address"
        }
      ],
      "stateMutability": "view",
      "type": "function"
    },
    {
      "inputs": [],
      "name": "eip712Domain",
      "outputs": [
        {
          "internalType": "bytes1",
          "name": "fields",
          "type": "bytes1"
        },
        {
          "internalType": "string",
          "name": "name",
          "type": "string"
        },
        {
          "internalType": "string",
          "name": "version",
          "type": "string"
        },
        {
          "internalType": "uint256",
          "name": "chainId",
          "type": "uint256"
        },
        {
          "internalType": "address",
          "name": "verifyingContract",
          "type": "address"
        },
        {
          "internalType": "bytes32",
          "name": "salt",
          "type": "bytes32"
        },
        {
          "internalType": "uint256[]",
          "name": "extensions",
          "type": "uint256[]"
        }
      ],
      "stateMutability": "view",
      "type": "function"
    },
    {
      "inputs": [
        {
          "internalType": "uint256",
          "name": "tokenId",
          "type": "uint256"
        }
      ],
      "name": "getApproved",
      "outputs": [
        {
          "internalType": "address",
          "name": "",
          "type": "address"
        }
      ],
      "stateMutability": "view",
      "type": "function"
    },
    {
      "inputs": [
        {
          "internalType": "uint256",
          "name": "timepoint",
          "type": "uint256"
        }
      ],
      "name": "getPastTotalSupply",
      "outputs": [
        {
          "internalType": "uint256",
          "name": "",
          "type": "uint256"
        }
      ],
      "stateMutability": "view",
      "type": "function"
    },
    {
      "inputs": [
        {
          "internalType": "address",
          "name": "account",
          "type": "address"
        },
        {
          "internalType": "uint256",
          "name": "timepoint",
          "type": "uint256"
        }
      ],
      "name": "getPastVotes",
      "outputs": [
        {
          "internalType": "uint256",
          "name": "",
          "type": "uint256"
        }
      ],
      "stateMutability": "view",
      "type": "function"
    },
    {
      "inputs": [
        {
          "internalType": "bytes32",
          "name": "role",
          "type": "bytes32"
        }
      ],
      "name": "getRoleAdmin",
      "outputs": [
        {
          "internalType": "bytes32",
          "name": "",
          "type": "bytes32"
        }
      ],
      "stateMutability": "view",
      "type": "function"
    },
    {
      "inputs": [
        {
          "internalType": "address",
          "name": "account",
          "type": "address"
        }
      ],
      "name": "getVotes",
      "outputs": [
        {
          "internalType": "uint256",
          "name": "",
          "type": "uint256"
        }
      ],
      "stateMutability": "view",
      "type": "function"
    },
    {
      "inputs": [
        {
          "internalType": "bytes32",
          "name": "role",
          "type": "bytes32"
        },
        {
          "internalType": "address",
          "name": "account",
          "type": "address"
        }
      ],
      "name": "grantRole",
      "outputs": [],
      "stateMutability": "nonpayable",
      "type": "function"
    },
    {
      "inputs": [
        {
          "internalType": "bytes32",
          "name": "role",
          "type": "bytes32"
        },
        {
          "internalType": "address",
          "name": "account",
          "type": "address"
        }
      ],
      "name": "hasRole",
      "outputs": [
        {
          "internalType": "bool",
          "name": "",
          "type": "bool"
        }
      ],
      "stateMutability": "view",
      "type": "function"
    },
    {
      "inputs": [
        {
          "internalType": "address",
          "name": "owner",
          "type": "address"
        },
        {
          "internalType": "address",
          "name": "operator",
          "type": "address"
        }
      ],
      "name": "isApprovedForAll",
      "outputs": [
        {
          "internalType": "bool",
          "name": "",
          "type": "bool"
        }
      ],
      "stateMutability": "view",
      "type": "function"
    },
    {
      "inputs": [],
      "name": "name",
      "outputs": [
        {
          "internalType": "string",
          "name": "",
          "type": "string"
        }
      ],
      "stateMutability": "view",
      "type": "function"
    },
    {
      "inputs": [
        {
          "internalType": "address",
          "name": "owner",
          "type": "address"
        }
      ],
      "name": "nonces",
      "outputs": [
        {
          "internalType": "uint256",
          "name": "",
          "type": "uint256"
        }
      ],
      "stateMutability": "view",
      "type": "function"
    },
    {
      "inputs": [
        {
          "internalType": "uint256",
          "name": "tokenId",
          "type": "uint256"
        }
      ],
      "name": "ownerOf",
      "outputs": [
        {
          "internalType": "address",
          "name": "",
          "type": "address"
        }
      ],
      "stateMutability": "view",
      "type": "function"
    },
    {
      "inputs": [],
      "name": "pause",
      "outputs": [],
      "stateMutability": "nonpayable",
      "type": "function"
    },
    {
      "inputs": [],
      "name": "paused",
      "outputs": [
        {
          "internalType": "bool",
          "name": "",
          "type": "bool"
        }
      ],
      "stateMutability": "view",
      "type": "function"
    },
    {
      "inputs": [
        {
          "internalType": "bytes32",
          "name": "role",
          "type": "bytes32"
        },
        {
          "internalType": "address",
          "name": "callerConfirmation",
          "type": "address"
        }
      ],
      "name": "renounceRole",
      "outputs": [],
      "stateMutability": "nonpayable",
      "type": "function"
    },
    {
      "inputs": [
        {
          "internalType": "bytes32",
          "name": "role",
          "type": "bytes32"
        },
        {
          "internalType": "address",
          "name": "account",
          "type": "address"
        }
      ],
      "name": "revokeRole",
      "outputs": [],
      "stateMutability": "nonpayable",
      "type": "function"
    },
    {
      "inputs": [
        {
          "internalType": "address",
          "name": "to",
          "type": "address"
        },
        {
          "internalType": "string",
          "name": "uri",
          "type": "string"
        }
      ],
      "name": "safeMint",
      "outputs": [
        {
          "internalType": "uint256",
          "name": "",
          "type": "uint256"
        }
      ],
      "stateMutability": "nonpayable",
      "type": "function"
    },
    {
      "inputs": [
        {
          "internalType": "address",
          "name": "from",
          "type": "address"
        },
        {
          "internalType": "address",
          "name": "to",
          "type": "address"
        },
        {
          "internalType": "uint256",
          "name": "tokenId",
          "type": "uint256"
        }
      ],
      "name": "safeTransferFrom",
      "outputs": [],
      "stateMutability": "nonpayable",
      "type": "function"
    },
    {
      "inputs": [
        {
          "internalType": "address",
          "name": "from",
          "type": "address"
        },
        {
          "internalType": "address",
          "name": "to",
          "type": "address"
        },
        {
          "internalType": "uint256",
          "name": "tokenId",
          "type": "uint256"
        },
        {
          "internalType": "bytes",
          "name": "data",
          "type": "bytes"
        }
      ],
      "name": "safeTransferFrom",
      "outputs": [],
      "stateMutability": "nonpayable",
      "type": "function"
    },
    {
      "inputs": [
        {
          "internalType": "address",
          "name": "operator",
          "type": "address"
        },
        {
          "internalType": "bool",
          "name": "approved",
          "type": "bool"
        }
      ],
      "name": "setApprovalForAll",
      "outputs": [],
      "stateMutability": "nonpayable",
      "type": "function"
    },
    {
      "inputs": [
        {
          "internalType": "bytes4",
          "name": "interfaceId",
          "type": "bytes4"
        }
      ],
      "name": "supportsInterface",
      "outputs": [
        {
          "internalType": "bool",
          "name": "",
          "type": "bool"
        }
      ],
      "stateMutability": "view",
      "type": "function"
    },
    {
      "inputs": [],
      "name": "symbol",
      "outputs": [
        {
          "internalType": "string",
          "name": "",
          "type": "string"
        }
      ],
      "stateMutability": "view",
      "type": "function"
    },
    {
      "inputs": [
        {
          "internalType": "uint256",
          "name": "tokenId",
          "type": "uint256"
        }
      ],
      "name": "tokenURI",
      "outputs": [
        {
          "internalType": "string",
          "name": "",
          "type": "string"
        }
      ],
      "stateMutability": "view",
      "type": "function"
    },
    {
      "inputs": [
        {
          "internalType": "address",
          "name": "from",
          "type": "address"
        },
        {
          "internalType": "address",
          "name": "to",
          "type": "address"
        },
        {
          "internalType": "uint256",
          "name": "tokenId",
          "type": "uint256"
        }
      ],
      "name": "transferFrom",
      "outputs": [],
      "stateMutability": "nonpayable",
      "type": "function"
    },
    {
      "inputs": [],
      "name": "unpause",
      "outputs": [],
      "stateMutability": "nonpayable",
      "type": "function"
    }
  ],
  "transactionHash": "0x05d2deba256e114b893c001226a280d180f866d3cfd0861b183e3f0c84601d87",
  "args": [
    "0xe1A07E8bA159548752f0335c7d8a3f68abc99f52",
    "0xe1A07E8bA159548752f0335c7d8a3f68abc99f52",
    "0xe1A07E8bA159548752f0335c7d8a3f68abc99f52"
  ],
  "numDeployments": 1,
  "solcInputHash": "a78fda5daadd41e1dc1c5f79039a115f",
  "bytecode": "0x61016060405234801561001157600080fd5b50604051612f43380380612f438339810160408190526100309161030c565b604080518082018252600780825266454d43204b657960c81b60208084018290528451808601865260018152603160f81b81830152855180870187529384528382019290925284518086019095526004855263454d434b60e01b908501529192600061009c83826103ee565b5060016100a982826103ee565b506100b9915083905060096101c8565b610120526100c881600a6101c8565b61014052815160208084019190912060e052815190820120610100524660a05261015560e05161010051604080517f8b73c3c69bb8fe3d512ecc4cf759cc79239f7b179b0ffacaa9a75d522b39400f60208201529081019290925260608201524660808201523060a082015260009060c00160405160208183030381529060405280519060200120905090565b60805250503060c0526101696000846101fb565b506101947f65d7a28e3265b37a6474929f336521b332c1681b933f6cb9f3376673440d862a836101fb565b506101bf7f9f2df0fed2c77648de5860a4cc508cd0818c85b8b8a1ab4ceeef8d981c8956a6826101fb565b5050505061051e565b60006020835110156101e4576101dd836102a9565b90506101f5565b816101ef84826103ee565b5060ff90505b92915050565b60008281526008602090815260408083206001600160a01b038516845290915281205460ff166102a15760008381526008602090815260408083206001600160a01b03861684529091529020805460ff191660011790556102593390565b6001600160a01b0316826001600160a01b0316847f2f8788117e7eff1d82e926ec794901d17c78024a50270940304540a733656f0d60405160405180910390a45060016101f5565b5060006101f5565b600080829050601f815111156102dd578260405163305a27a960e01b81526004016102d491906104ac565b60405180910390fd5b80516102e8826104fa565b179392505050565b80516001600160a01b038116811461030757600080fd5b919050565b60008060006060848603121561032157600080fd5b61032a846102f0565b9250610338602085016102f0565b9150610346604085016102f0565b90509250925092565b634e487b7160e01b600052604160045260246000fd5b600181811c9082168061037957607f821691505b60208210810361039957634e487b7160e01b600052602260045260246000fd5b50919050565b601f8211156103e957806000526020600020601f840160051c810160208510156103c65750805b601f840160051c820191505b818110156103e657600081556001016103d2565b50505b505050565b81516001600160401b038111156104075761040761034f565b61041b816104158454610365565b8461039f565b6020601f82116001811461044f57600083156104375750848201515b600019600385901b1c1916600184901b1784556103e6565b600084815260208120601f198516915b8281101561047f578785015182556020948501946001909201910161045f565b508482101561049d5786840151600019600387901b60f8161c191681555b50505050600190811b01905550565b602081526000825180602084015260005b818110156104da57602081860181015160408684010152016104bd565b506000604082850101526040601f19601f83011684010191505092915050565b805160208083015191908110156103995760001960209190910360031b1b16919050565b60805160a05160c05160e0516101005161012051610140516129cb6105786000396000610e7301526000610e41015260006119740152600061194c015260006118a7015260006118d1015260006118fb01526129cb6000f3fe608060405234801561001057600080fd5b506004361061021c5760003560e01c80637ecebe0011610125578063a22cb465116100ad578063d204c45e1161007c578063d204c45e146104da578063d5391393146104ed578063d547741f14610514578063e63ab1e914610527578063e985e9c51461054e57600080fd5b8063a22cb4651461048e578063b88d4fde146104a1578063c3cda520146104b4578063c87b56dd146104c757600080fd5b806391d14854116100f457806391d148541461044257806391ddadf41461045557806395d89b411461046b5780639ab24eb014610473578063a217fddf1461048657600080fd5b80637ecebe00146103e35780638456cb591461040c57806384b0196e146104145780638e539e8c1461042f57600080fd5b80633f4ba83a116101a8578063587cde1e11610177578063587cde1e146103735780635c19a95c1461039f5780635c975abb146103b25780636352211e146103bd57806370a08231146103d057600080fd5b80633f4ba83a1461031b57806342842e0e1461032357806342966c68146103365780634bf5d7e91461034957600080fd5b806323b872dd116101ef57806323b872dd1461029e578063248a9ca3146102b15780632f2ff15d146102e257806336568abe146102f55780633a46b1a81461030857600080fd5b806301ffc9a71461022157806306fdde0314610249578063081812fc1461025e578063095ea7b314610289575b600080fd5b61023461022f3660046122bc565b610561565b60405190151581526020015b60405180910390f35b610251610572565b6040516102409190612329565b61027161026c36600461233c565b610604565b6040516001600160a01b039091168152602001610240565b61029c610297366004612371565b61062d565b005b61029c6102ac36600461239b565b61063c565b6102d46102bf36600461233c565b60009081526008602052604090206001015490565b604051908152602001610240565b61029c6102f03660046123d8565b6106cc565b61029c6103033660046123d8565b6106f1565b6102d4610316366004612371565b610729565b61029c610765565b61029c61033136600461239b565b61079a565b61029c61034436600461233c565b6107b5565b60408051808201909152600e81526d06d6f64653d74696d657374616d760941b6020820152610251565b610271610381366004612404565b6001600160a01b039081166000908152600c60205260409020541690565b61029c6103ad366004612404565b6107c1565b60075460ff16610234565b6102716103cb36600461233c565b6107cc565b6102d46103de366004612404565b6107d7565b6102d46103f1366004612404565b6001600160a01b03166000908152600b602052604090205490565b61029c61081f565b61041c610851565b604051610240979695949392919061241f565b6102d461043d36600461233c565b610897565b6102346104503660046123d8565b6108bc565b60405165ffffffffffff42168152602001610240565b6102516108e7565b6102d4610481366004612404565b6108f6565b6102d4600081565b61029c61049c3660046124b7565b610917565b61029c6104af366004612583565b610922565b61029c6104c23660046125ff565b61093a565b6102516104d536600461233c565b6109f7565b6102d46104e836600461265f565b610a02565b6102d47f9f2df0fed2c77648de5860a4cc508cd0818c85b8b8a1ab4ceeef8d981c8956a681565b61029c6105223660046123d8565b610a61565b6102d47f65d7a28e3265b37a6474929f336521b332c1681b933f6cb9f3376673440d862a81565b61023461055c3660046126c1565b610a86565b600061056c82610ab4565b92915050565b606060008054610581906126eb565b80601f01602080910402602001604051908101604052809291908181526020018280546105ad906126eb565b80156105fa5780601f106105cf576101008083540402835291602001916105fa565b820191906000526020600020905b8154815290600101906020018083116105dd57829003601f168201915b5050505050905090565b600061060f82610ad9565b506000828152600460205260409020546001600160a01b031661056c565b610638828233610b12565b5050565b6001600160a01b03821661066b57604051633250574960e11b8152600060048201526024015b60405180910390fd5b6000610678838333610b1f565b9050836001600160a01b0316816001600160a01b0316146106c6576040516364283d7b60e01b81526001600160a01b0380861660048301526024820184905282166044820152606401610662565b50505050565b6000828152600860205260409020600101546106e781610b2c565b6106c68383610b36565b6001600160a01b038116331461071a5760405163334bd91960e11b815260040160405180910390fd5b6107248282610bca565b505050565b600061075561073783610c37565b6001600160a01b0385166000908152600d6020526040902090610c83565b6001600160d01b03169392505050565b7f65d7a28e3265b37a6474929f336521b332c1681b933f6cb9f3376673440d862a61078f81610b2c565b610797610d39565b50565b61072483838360405180602001604052806000815250610922565b61063860008233610b1f565b336106388183610d8b565b600061056c82610ad9565b60006001600160a01b038216610803576040516322718ad960e21b815260006004820152602401610662565b506001600160a01b031660009081526003602052604090205490565b7f65d7a28e3265b37a6474929f336521b332c1681b933f6cb9f3376673440d862a61084981610b2c565b610797610dfd565b600060608060008060006060610865610e3a565b61086d610e6c565b60408051600080825260208201909252600f60f81b9b939a50919850469750309650945092509050565b60006108ad6108a583610c37565b600e90610c83565b6001600160d01b031692915050565b60009182526008602090815260408084206001600160a01b0393909316845291905290205460ff1690565b606060018054610581906126eb565b6001600160a01b0381166000908152600d602052604081206108ad90610e99565b610638338383610ed2565b61092d84848461063c565b6106c63385858585610f71565b8342111561095e57604051632341d78760e11b815260048101859052602401610662565b604080517fe48329057bfd03d55e49b547132e39cffd9c1820ad7b9d4c5307691425d15adf60208201526001600160a01b0388169181019190915260608101869052608081018590526000906109d8906109d09060a0016040516020818303038152906040528051906020012061109c565b8585856110c9565b90506109e481876110f7565b6109ee8188610d8b565b50505050505050565b606061056c8261114a565b60007f9f2df0fed2c77648de5860a4cc508cd0818c85b8b8a1ab4ceeef8d981c8956a6610a2e81610b2c565b600f805460009182610a3f8361273b565b919050559050610a4f8582611253565b610a59818561126d565b949350505050565b600082815260086020526040902060010154610a7c81610b2c565b6106c68383610bca565b6001600160a01b03918216600090815260056020908152604080832093909416825291909152205460ff1690565b60006001600160e01b03198216637965db0b60e01b148061056c575061056c826112bd565b6000818152600260205260408120546001600160a01b03168061056c57604051637e27328960e01b815260048101849052602401610662565b61072483838360016112e2565b6000610a598484846113e8565b6107978133611404565b6000610b4283836108bc565b610bc25760008381526008602090815260408083206001600160a01b03861684529091529020805460ff19166001179055610b7a3390565b6001600160a01b0316826001600160a01b0316847f2f8788117e7eff1d82e926ec794901d17c78024a50270940304540a733656f0d60405160405180910390a450600161056c565b50600061056c565b6000610bd683836108bc565b15610bc25760008381526008602090815260408083206001600160a01b0386168085529252808320805460ff1916905551339286917ff6391f5c32d9c69d2a47ea670b442974b53935d1edc7fd64eb21e047a839171b9190a450600161056c565b60004265ffffffffffff81168310610c7357604051637669fc0f60e11b81526004810184905265ffffffffffff82166024820152604401610662565b610c7c8361143d565b9392505050565b815460009081816005811115610ce2576000610c9e84611474565b610ca89085612754565b60008881526020902090915081015465ffffffffffff9081169087161015610cd257809150610ce0565b610cdd816001612767565b92505b505b6000610cf0878785856115cd565b90508015610d2b57610d1587610d07600184612754565b600091825260209091200190565b54600160301b90046001600160d01b0316610d2e565b60005b979650505050505050565b610d4161162f565b6007805460ff191690557f5db9ee0a495bf2e6ff9c91a7834c1ba4fdd244a5e8aa4e537bd38aeae4b073aa335b6040516001600160a01b03909116815260200160405180910390a1565b6001600160a01b038281166000818152600c602052604080822080548686166001600160a01b0319821681179092559151919094169392849290917f3134e8a2e6d97e929a7e54011ea5485d7d196dd5f0ba4d4ef95803e8e3fc257f9190a46107248183610df886611654565b61165f565b610e056117cb565b6007805460ff191660011790557f62e78cea01bee320cd4e420270b5ea74000d11b0c9f74754ebdbfc544b05a258610d6e3390565b6060610e677f000000000000000000000000000000000000000000000000000000000000000060096117ef565b905090565b6060610e677f0000000000000000000000000000000000000000000000000000000000000000600a6117ef565b80546000908015610ec957610eb383610d07600184612754565b54600160301b90046001600160d01b0316610c7c565b60009392505050565b6001600160a01b038216610f0457604051630b61174360e31b81526001600160a01b0383166004820152602401610662565b6001600160a01b03838116600081815260056020908152604080832094871680845294825291829020805460ff191686151590811790915591519182527f17307eab39ab6107e8899845ad3d59bd9653f200f220920489ca2b5937696c31910160405180910390a3505050565b6001600160a01b0383163b1561109557604051630a85bd0160e11b81526001600160a01b0384169063150b7a0290610fb390889088908790879060040161277a565b6020604051808303816000875af1925050508015610fee575060408051601f3d908101601f19168201909252610feb918101906127b7565b60015b611057573d80801561101c576040519150601f19603f3d011682016040523d82523d6000602084013e611021565b606091505b50805160000361104f57604051633250574960e11b81526001600160a01b0385166004820152602401610662565b805181602001fd5b6001600160e01b03198116630a85bd0160e11b1461109357604051633250574960e11b81526001600160a01b0385166004820152602401610662565b505b5050505050565b600061056c6110a961189a565b8360405161190160f01b8152600281019290925260228201526042902090565b6000806000806110db888888886119c5565b9250925092506110eb8282611a94565b50909695505050505050565b6001600160a01b0382166000908152600b60205260409020805460018101909155818114610724576040516301d4b62360e61b81526001600160a01b038416600482015260248101829052604401610662565b606061115582610ad9565b506000828152600660205260408120805461116f906126eb565b80601f016020809104026020016040519081016040528092919081815260200182805461119b906126eb565b80156111e85780601f106111bd576101008083540402835291602001916111e8565b820191906000526020600020905b8154815290600101906020018083116111cb57829003601f168201915b50505050509050600061120660408051602081019091526000815290565b90508051600003611218575092915050565b81511561124a5780826040516020016112329291906127d4565b60405160208183030381529060405292505050919050565b610a5984611b4d565b610638828260405180602001604052806000815250611bc1565b6000828152600660205260409020611285828261284a565b506040518281527ff8e1a15aba9398e019f0b49df1a4fde98ee17ae345cb5f6b5e2c27f5033e8ce79060200160405180910390a15050565b60006001600160e01b03198216632483248360e11b148061056c575061056c82611bd9565b80806112f657506001600160a01b03821615155b156113b857600061130684610ad9565b90506001600160a01b038316158015906113325750826001600160a01b0316816001600160a01b031614155b801561134557506113438184610a86565b155b1561136e5760405163a9fbf51f60e01b81526001600160a01b0384166004820152602401610662565b81156113b65783856001600160a01b0316826001600160a01b03167f8c5be1e5ebec7d5bd14f71427d1e84f3dd0314c0f7b2291e5b200ac8c7c3b92560405160405180910390a45b505b5050600090815260046020526040902080546001600160a01b0319166001600160a01b0392909216919091179055565b6000806113f6858585611c29565b9050610a5981866001611c3e565b61140e82826108bc565b6106385760405163e2517d3f60e01b81526001600160a01b038216600482015260248101839052604401610662565b600065ffffffffffff821115611470576040516306dfcc6560e41b81526030600482015260248101839052604401610662565b5090565b600060018211611482575090565b816001600160801b821061149b5760809190911c9060401b5b6801000000000000000082106114b65760409190911c9060201b5b64010000000082106114cd5760209190911c9060101b5b6201000082106114e25760109190911c9060081b5b61010082106114f65760089190911c9060041b5b601082106115095760049190911c9060021b5b600482106115155760011b5b600302600190811c9081858161152d5761152d612909565b048201901c9050600181858161154557611545612909565b048201901c9050600181858161155d5761155d612909565b048201901c9050600181858161157557611575612909565b048201901c9050600181858161158d5761158d612909565b048201901c905060018185816115a5576115a5612909565b048201901c90506115c48185816115be576115be612909565b04821190565b90039392505050565b60005b818310156116275760006115e48484611cb4565b60008781526020902090915065ffffffffffff86169082015465ffffffffffff16111561161357809250611621565b61161e816001612767565b93505b506115d0565b509392505050565b60075460ff1661165257604051638dfc202b60e01b815260040160405180910390fd5b565b600061056c826107d7565b816001600160a01b0316836001600160a01b0316141580156116815750600081115b15610724576001600160a01b03831615611729576001600160a01b0383166000908152600d6020526040812081906116c490611ccf6116bf86611cdb565b611d0f565b6001600160d01b031691506001600160d01b03169150846001600160a01b03167fdec2bacdd2f05b59de34da9b523dff8be42e5e38e818c82fdb0bae774387a724838360405161171e929190918252602082015260400190565b60405180910390a250505b6001600160a01b03821615610724576001600160a01b0382166000908152600d60205260408120819061176290611d416116bf86611cdb565b6001600160d01b031691506001600160d01b03169150836001600160a01b03167fdec2bacdd2f05b59de34da9b523dff8be42e5e38e818c82fdb0bae774387a72483836040516117bc929190918252602082015260400190565b60405180910390a25050505050565b60075460ff16156116525760405163d93c066560e01b815260040160405180910390fd5b606060ff83146118095761180283611d4d565b905061056c565b818054611815906126eb565b80601f0160208091040260200160405190810160405280929190818152602001828054611841906126eb565b801561188e5780601f106118635761010080835404028352916020019161188e565b820191906000526020600020905b81548152906001019060200180831161187157829003601f168201915b5050505050905061056c565b6000306001600160a01b037f0000000000000000000000000000000000000000000000000000000000000000161480156118f357507f000000000000000000000000000000000000000000000000000000000000000046145b1561191d57507f000000000000000000000000000000000000000000000000000000000000000090565b610e67604080517f8b73c3c69bb8fe3d512ecc4cf759cc79239f7b179b0ffacaa9a75d522b39400f60208201527f0000000000000000000000000000000000000000000000000000000000000000918101919091527f000000000000000000000000000000000000000000000000000000000000000060608201524660808201523060a082015260009060c00160405160208183030381529060405280519060200120905090565b600080807f7fffffffffffffffffffffffffffffff5d576e7357a4501ddfe92f46681b20a0841115611a005750600091506003905082611a8a565b604080516000808252602082018084528a905260ff891692820192909252606081018790526080810186905260019060a0016020604051602081039080840390855afa158015611a54573d6000803e3d6000fd5b5050604051601f1901519150506001600160a01b038116611a8057506000925060019150829050611a8a565b9250600091508190505b9450945094915050565b6000826003811115611aa857611aa861291f565b03611ab1575050565b6001826003811115611ac557611ac561291f565b03611ae35760405163f645eedf60e01b815260040160405180910390fd5b6002826003811115611af757611af761291f565b03611b185760405163fce698f760e01b815260048101829052602401610662565b6003826003811115611b2c57611b2c61291f565b03610638576040516335e2f38360e21b815260048101829052602401610662565b6060611b5882610ad9565b506000611b7060408051602081019091526000815290565b90506000815111611b905760405180602001604052806000815250610c7c565b80611b9a84611d8c565b604051602001611bab9291906127d4565b6040516020818303038152906040529392505050565b611bcb8383611e1f565b610724336000858585610f71565b60006001600160e01b031982166380ac58cd60e01b1480611c0a57506001600160e01b03198216635b5e139f60e01b145b8061056c57506301ffc9a760e01b6001600160e01b031983161461056c565b6000611c336117cb565b610a59848484611e84565b6001600160a01b038316611c6057611c5d600e611d416116bf84611cdb565b50505b6001600160a01b038216611c8257611c7f600e611ccf6116bf84611cdb565b50505b6001600160a01b038381166000908152600c60205260408082205485841683529120546107249291821691168361165f565b6000611cc36002848418612935565b610c7c90848416612767565b6000610c7c8284612957565b60006001600160d01b03821115611470576040516306dfcc6560e41b815260d0600482015260248101839052604401610662565b600080611d3442611d2c611d2288610e99565b868863ffffffff16565b879190611f7d565b915091505b935093915050565b6000610c7c8284612976565b60606000611d5a83611f8b565b604080516020808252818301909252919250600091906020820181803683375050509182525060208101929092525090565b60606000611d9983611fb3565b600101905060008167ffffffffffffffff811115611db957611db96124f3565b6040519080825280601f01601f191660200182016040528015611de3576020820181803683370190505b5090508181016020015b600019016f181899199a1a9b1b9c1cb0b131b232b360811b600a86061a8153600a8504945084611ded57509392505050565b6001600160a01b038216611e4957604051633250574960e11b815260006004820152602401610662565b6000611e5783836000610b1f565b90506001600160a01b03811615610724576040516339e3563760e11b815260006004820152602401610662565b6000828152600260205260408120546001600160a01b0390811690831615611eb157611eb181848661208b565b6001600160a01b03811615611eef57611ece6000856000806112e2565b6001600160a01b038116600090815260036020526040902080546000190190555b6001600160a01b03851615611f1e576001600160a01b0385166000908152600360205260409020805460010190555b60008481526002602052604080822080546001600160a01b0319166001600160a01b0389811691821790925591518793918516917fddf252ad1be2c89b69c2b068fc378daa952ba7f163c4a11628f55a4df523b3ef91a4949350505050565b600080611d348585856120ef565b600060ff8216601f81111561056c57604051632cd44ac360e21b815260040160405180910390fd5b60008072184f03e93ff9f4daa797ed6e38ed64bf6a1f0160401b8310611ff25772184f03e93ff9f4daa797ed6e38ed64bf6a1f0160401b830492506040015b6d04ee2d6d415b85acef8100000000831061201e576d04ee2d6d415b85acef8100000000830492506020015b662386f26fc10000831061203c57662386f26fc10000830492506010015b6305f5e1008310612054576305f5e100830492506008015b612710831061206857612710830492506004015b6064831061207a576064830492506002015b600a831061056c5760010192915050565b612096838383612243565b610724576001600160a01b0383166120c457604051637e27328960e01b815260048101829052602401610662565b60405163177e802f60e01b81526001600160a01b038316600482015260248101829052604401610662565b8254600090819080156121e857600061210d87610d07600185612754565b805490915065ffffffffffff80821691600160301b90046001600160d01b031690881682111561215057604051632520601d60e01b815260040160405180910390fd5b8765ffffffffffff168265ffffffffffff160361218957825465ffffffffffff16600160301b6001600160d01b038916021783556121da565b6040805180820190915265ffffffffffff808a1682526001600160d01b03808a1660208085019182528d54600181018f5560008f81529190912094519151909216600160301b029216919091179101555b9450859350611d3992505050565b50506040805180820190915265ffffffffffff80851682526001600160d01b0380851660208085019182528854600181018a5560008a815291822095519251909316600160301b029190931617920191909155905081611d39565b60006001600160a01b03831615801590610a595750826001600160a01b0316846001600160a01b0316148061227d575061227d8484610a86565b80610a595750506000908152600460205260409020546001600160a01b03908116911614919050565b6001600160e01b03198116811461079757600080fd5b6000602082840312156122ce57600080fd5b8135610c7c816122a6565b60005b838110156122f45781810151838201526020016122dc565b50506000910152565b600081518084526123158160208601602086016122d9565b601f01601f19169290920160200192915050565b602081526000610c7c60208301846122fd565b60006020828403121561234e57600080fd5b5035919050565b80356001600160a01b038116811461236c57600080fd5b919050565b6000806040838503121561238457600080fd5b61238d83612355565b946020939093013593505050565b6000806000606084860312156123b057600080fd5b6123b984612355565b92506123c760208501612355565b929592945050506040919091013590565b600080604083850312156123eb57600080fd5b823591506123fb60208401612355565b90509250929050565b60006020828403121561241657600080fd5b610c7c82612355565b60ff60f81b8816815260e06020820152600061243e60e08301896122fd565b828103604084015261245081896122fd565b606084018890526001600160a01b038716608085015260a0840186905283810360c08501528451808252602080870193509091019060005b818110156124a6578351835260209384019390920191600101612488565b50909b9a5050505050505050505050565b600080604083850312156124ca57600080fd5b6124d383612355565b9150602083013580151581146124e857600080fd5b809150509250929050565b634e487b7160e01b600052604160045260246000fd5b60008067ffffffffffffffff841115612524576125246124f3565b50604051601f19601f85018116603f0116810181811067ffffffffffffffff82111715612553576125536124f3565b60405283815290508082840185101561256b57600080fd5b83836020830137600060208583010152509392505050565b6000806000806080858703121561259957600080fd5b6125a285612355565b93506125b060208601612355565b925060408501359150606085013567ffffffffffffffff8111156125d357600080fd5b8501601f810187136125e457600080fd5b6125f387823560208401612509565b91505092959194509250565b60008060008060008060c0878903121561261857600080fd5b61262187612355565b95506020870135945060408701359350606087013560ff8116811461264557600080fd5b9598949750929560808101359460a0909101359350915050565b6000806040838503121561267257600080fd5b61267b83612355565b9150602083013567ffffffffffffffff81111561269757600080fd5b8301601f810185136126a857600080fd5b6126b785823560208401612509565b9150509250929050565b600080604083850312156126d457600080fd5b6126dd83612355565b91506123fb60208401612355565b600181811c908216806126ff57607f821691505b60208210810361271f57634e487b7160e01b600052602260045260246000fd5b50919050565b634e487b7160e01b600052601160045260246000fd5b60006001820161274d5761274d612725565b5060010190565b8181038181111561056c5761056c612725565b8082018082111561056c5761056c612725565b6001600160a01b03858116825284166020820152604081018390526080606082018190526000906127ad908301846122fd565b9695505050505050565b6000602082840312156127c957600080fd5b8151610c7c816122a6565b600083516127e68184602088016122d9565b8351908301906127fa8183602088016122d9565b01949350505050565b601f82111561072457806000526020600020601f840160051c8101602085101561282a5750805b601f840160051c820191505b818110156110955760008155600101612836565b815167ffffffffffffffff811115612864576128646124f3565b6128788161287284546126eb565b84612803565b6020601f8211600181146128ac57600083156128945750848201515b600019600385901b1c1916600184901b178455611095565b600084815260208120601f198516915b828110156128dc57878501518255602094850194600190920191016128bc565b50848210156128fa5786840151600019600387901b60f8161c191681555b50505050600190811b01905550565b634e487b7160e01b600052601260045260246000fd5b634e487b7160e01b600052602160045260246000fd5b60008261295257634e487b7160e01b600052601260045260246000fd5b500490565b6001600160d01b03828116828216039081111561056c5761056c612725565b6001600160d01b03818116838216019081111561056c5761056c61272556fea2646970667358221220b39ba26e5ae013bab3f5114268cf42c90d97f6dcae08c2957b84bc8b47dd80ed64736f6c634300081b0033",
  "devdoc": {
    "errors": {
      "AccessControlBadConfirmation()": [
        {
          "details": "The caller of a function is not the expected one. NOTE: Don't confuse with {AccessControlUnauthorizedAccount}."
        }
      ],
      "AccessControlUnauthorizedAccount(address,bytes32)": [
        {
          "details": "The `account` is missing a role."
        }
      ],
      "CheckpointUnorderedInsertion()": [
        {
          "details": "A value was attempted to be inserted on a past checkpoint."
        }
      ],
      "ECDSAInvalidSignature()": [
        {
          "details": "The signature derives the `address(0)`."
        }
      ],
      "ECDSAInvalidSignatureLength(uint256)": [
        {
          "details": "The signature has an invalid length."
        }
      ],
      "ECDSAInvalidSignatureS(bytes32)": [
        {
          "details": "The signature has an S value that is in the upper half order."
        }
      ],
      "ERC5805FutureLookup(uint256,uint48)": [
        {
          "details": "Lookup to future votes is not available."
        }
      ],
      "ERC6372InconsistentClock()": [
        {
          "details": "The clock was incorrectly modified."
        }
      ],
      "ERC721IncorrectOwner(address,uint256,address)": [
        {
          "details": "Indicates an error related to the ownership over a particular token. Used in transfers.",
          "params": {
            "owner": "Address of the current owner of a token.",
            "sender": "Address whose tokens are being transferred.",
            "tokenId": "Identifier number of a token."
          }
        }
      ],
      "ERC721InsufficientApproval(address,uint256)": [
        {
          "details": "Indicates a failure with the `operator`s approval. Used in transfers.",
          "params": {
            "operator": "Address that may be allowed to operate on tokens without being their owner.",
            "tokenId": "Identifier number of a token."
          }
        }
      ],
      "ERC721InvalidApprover(address)": [
        {
          "details": "Indicates a failure with the `approver` of a token to be approved. Used in approvals.",
          "params": {
            "approver": "Address initiating an approval operation."
          }
        }
      ],
      "ERC721InvalidOperator(address)": [
        {
          "details": "Indicates a failure with the `operator` to be approved. Used in approvals.",
          "params": {
            "operator": "Address that may be allowed to operate on tokens without being their owner."
          }
        }
      ],
      "ERC721InvalidOwner(address)": [
        {
          "details": "Indicates that an address can't be an owner. For example, `address(0)` is a forbidden owner in ERC-20. Used in balance queries.",
          "params": {
            "owner": "Address of the current owner of a token."
          }
        }
      ],
      "ERC721InvalidReceiver(address)": [
        {
          "details": "Indicates a failure with the token `receiver`. Used in transfers.",
          "params": {
            "receiver": "Address to which tokens are being transferred."
          }
        }
      ],
      "ERC721InvalidSender(address)": [
        {
          "details": "Indicates a failure with the token `sender`. Used in transfers.",
          "params": {
            "sender": "Address whose tokens are being transferred."
          }
        }
      ],
      "ERC721NonexistentToken(uint256)": [
        {
          "details": "Indicates a `tokenId` whose `owner` is the zero address.",
          "params": {
            "tokenId": "Identifier number of a token."
          }
        }
      ],
      "EnforcedPause()": [
        {
          "details": "The operation failed because the contract is paused."
        }
      ],
      "ExpectedPause()": [
        {
          "details": "The operation failed because the contract is not paused."
        }
      ],
      "InvalidAccountNonce(address,uint256)": [
        {
          "details": "The nonce used for an `account` is not the expected current nonce."
        }
      ],
      "SafeCastOverflowedUintDowncast(uint8,uint256)": [
        {
          "details": "Value doesn't fit in an uint of `bits` size."
        }
      ],
      "VotesExpiredSignature(uint256)": [
        {
          "details": "The signature used has expired."
        }
      ]
    },
    "events": {
      "Approval(address,address,uint256)": {
        "details": "Emitted when `owner` enables `approved` to manage the `tokenId` token."
      },
      "ApprovalForAll(address,address,bool)": {
        "details": "Emitted when `owner` enables or disables (`approved`) `operator` to manage all of its assets."
      },
      "BatchMetadataUpdate(uint256,uint256)": {
        "details": "This event emits when the metadata of a range of tokens is changed. So that the third-party platforms such as NFT market could timely update the images and related attributes of the NFTs."
      },
      "DelegateChanged(address,address,address)": {
        "details": "Emitted when an account changes their delegate."
      },
      "DelegateVotesChanged(address,uint256,uint256)": {
        "details": "Emitted when a token transfer or delegate change results in changes to a delegate's number of voting units."
      },
      "EIP712DomainChanged()": {
        "details": "MAY be emitted to signal that the domain could have changed."
      },
      "MetadataUpdate(uint256)": {
        "details": "This event emits when the metadata of a token is changed. So that the third-party platforms such as NFT market could timely update the images and related attributes of the NFT."
      },
      "Paused(address)": {
        "details": "Emitted when the pause is triggered by `account`."
      },
      "RoleAdminChanged(bytes32,bytes32,bytes32)": {
        "details": "Emitted when `newAdminRole` is set as ``role``'s admin role, replacing `previousAdminRole` `DEFAULT_ADMIN_ROLE` is the starting admin for all roles, despite {RoleAdminChanged} not being emitted to signal this."
      },
      "RoleGranted(bytes32,address,address)": {
        "details": "Emitted when `account` is granted `role`. `sender` is the account that originated the contract call. This account bears the admin role (for the granted role). Expected in cases where the role was granted using the internal {AccessControl-_grantRole}."
      },
      "RoleRevoked(bytes32,address,address)": {
        "details": "Emitted when `account` is revoked `role`. `sender` is the account that originated the contract call:   - if using `revokeRole`, it is the admin role bearer   - if using `renounceRole`, it is the role bearer (i.e. `account`)"
      },
      "Transfer(address,address,uint256)": {
        "details": "Emitted when `tokenId` token is transferred from `from` to `to`."
      },
      "Unpaused(address)": {
        "details": "Emitted when the pause is lifted by `account`."
      }
    },
    "kind": "dev",
    "methods": {
      "CLOCK_MODE()": {
        "details": "Machine-readable description of the clock as specified in ERC-6372."
      },
      "approve(address,uint256)": {
        "details": "See {IERC721-approve}."
      },
      "balanceOf(address)": {
        "details": "See {IERC721-balanceOf}."
      },
      "burn(uint256)": {
        "details": "Burns `tokenId`. See {ERC721-_burn}. Requirements: - The caller must own `tokenId` or be an approved operator."
      },
      "clock()": {
        "details": "Clock used for flagging checkpoints. Can be overridden to implement timestamp based checkpoints (and voting), in which case {CLOCK_MODE} should be overridden as well to match."
      },
      "delegate(address)": {
        "details": "Delegates votes from the sender to `delegatee`."
      },
      "delegateBySig(address,uint256,uint256,uint8,bytes32,bytes32)": {
        "details": "Delegates votes from signer to `delegatee`."
      },
      "delegates(address)": {
        "details": "Returns the delegate that `account` has chosen."
      },
      "eip712Domain()": {
        "details": "returns the fields and values that describe the domain separator used by this contract for EIP-712 signature."
      },
      "getApproved(uint256)": {
        "details": "See {IERC721-getApproved}."
      },
      "getPastTotalSupply(uint256)": {
        "details": "Returns the total supply of votes available at a specific moment in the past. If the `clock()` is configured to use block numbers, this will return the value at the end of the corresponding block. NOTE: This value is the sum of all available votes, which is not necessarily the sum of all delegated votes. Votes that have not been delegated are still part of total supply, even though they would not participate in a vote. Requirements: - `timepoint` must be in the past. If operating using block numbers, the block must be already mined."
      },
      "getPastVotes(address,uint256)": {
        "details": "Returns the amount of votes that `account` had at a specific moment in the past. If the `clock()` is configured to use block numbers, this will return the value at the end of the corresponding block. Requirements: - `timepoint` must be in the past. If operating using block numbers, the block must be already mined."
      },
      "getRoleAdmin(bytes32)": {
        "details": "Returns the admin role that controls `role`. See {grantRole} and {revokeRole}. To change a role's admin, use {_setRoleAdmin}."
      },
      "getVotes(address)": {
        "details": "Returns the current amount of votes that `account` has."
      },
      "grantRole(bytes32,address)": {
        "details": "Grants `role` to `account`. If `account` had not been already granted `role`, emits a {RoleGranted} event. Requirements: - the caller must have ``role``'s admin role. May emit a {RoleGranted} event."
      },
      "hasRole(bytes32,address)": {
        "details": "Returns `true` if `account` has been granted `role`."
      },
      "isApprovedForAll(address,address)": {
        "details": "See {IERC721-isApprovedForAll}."
      },
      "name()": {
        "details": "See {IERC721Metadata-name}."
      },
      "nonces(address)": {
        "details": "Returns the next unused nonce for an address."
      },
      "ownerOf(uint256)": {
        "details": "See {IERC721-ownerOf}."
      },
      "paused()": {
        "details": "Returns true if the contract is paused, and false otherwise."
      },
      "renounceRole(bytes32,address)": {
        "details": "Revokes `role` from the calling account. Roles are often managed via {grantRole} and {revokeRole}: this function's purpose is to provide a mechanism for accounts to lose their privileges if they are compromised (such as when a trusted device is misplaced). If the calling account had been revoked `role`, emits a {RoleRevoked} event. Requirements: - the caller must be `callerConfirmation`. May emit a {RoleRevoked} event."
      },
      "revokeRole(bytes32,address)": {
        "details": "Revokes `role` from `account`. If `account` had been granted `role`, emits a {RoleRevoked} event. Requirements: - the caller must have ``role``'s admin role. May emit a {RoleRevoked} event."
      },
      "safeTransferFrom(address,address,uint256)": {
        "details": "See {IERC721-safeTransferFrom}."
      },
      "safeTransferFrom(address,address,uint256,bytes)": {
        "details": "See {IERC721-safeTransferFrom}."
      },
      "setApprovalForAll(address,bool)": {
        "details": "See {IERC721-setApprovalForAll}."
      },
      "symbol()": {
        "details": "See {IERC721Metadata-symbol}."
      },
      "transferFrom(address,address,uint256)": {
        "details": "See {IERC721-transferFrom}."
      }
    },
    "version": 1
  },
  "userdoc": {
    "kind": "user",
    "methods": {},
    "version": 1
  },
  "storageLayout": {
    "storage": [
      {
        "astId": 1257,
        "contract": "contracts/YourContract.sol:YourContract",
        "label": "_name",
        "offset": 0,
        "slot": "0",
        "type": "t_string_storage"
      },
      {
        "astId": 1259,
        "contract": "contracts/YourContract.sol:YourContract",
        "label": "_symbol",
        "offset": 0,
        "slot": "1",
        "type": "t_string_storage"
      },
      {
        "astId": 1263,
        "contract": "contracts/YourContract.sol:YourContract",
        "label": "_owners",
        "offset": 0,
        "slot": "2",
        "type": "t_mapping(t_uint256,t_address)"
      },
      {
        "astId": 1267,
        "contract": "contracts/YourContract.sol:YourContract",
        "label": "_balances",
        "offset": 0,
        "slot": "3",
        "type": "t_mapping(t_address,t_uint256)"
      },
      {
        "astId": 1271,
        "contract": "contracts/YourContract.sol:YourContract",
        "label": "_tokenApprovals",
        "offset": 0,
        "slot": "4",
        "type": "t_mapping(t_uint256,t_address)"
      },
      {
        "astId": 1277,
        "contract": "contracts/YourContract.sol:YourContract",
        "label": "_operatorApprovals",
        "offset": 0,
        "slot": "5",
        "type": "t_mapping(t_address,t_mapping(t_address,t_bool))"
      },
      {
        "astId": 2408,
        "contract": "contracts/YourContract.sol:YourContract",
        "label": "_tokenURIs",
        "offset": 0,
        "slot": "6",
        "type": "t_mapping(t_uint256,t_string_storage)"
      },
      {
        "astId": 2853,
        "contract": "contracts/YourContract.sol:YourContract",
        "label": "_paused",
        "offset": 0,
        "slot": "7",
        "type": "t_bool"
      },
      {
        "astId": 26,
        "contract": "contracts/YourContract.sol:YourContract",
        "label": "_roles",
        "offset": 0,
        "slot": "8",
        "type": "t_mapping(t_bytes32,t_struct(RoleData)21_storage)"
      },
      {
        "astId": 5080,
        "contract": "contracts/YourContract.sol:YourContract",
        "label": "_nameFallback",
        "offset": 0,
        "slot": "9",
        "type": "t_string_storage"
      },
      {
        "astId": 5082,
        "contract": "contracts/YourContract.sol:YourContract",
        "label": "_versionFallback",
        "offset": 0,
        "slot": "10",
        "type": "t_string_storage"
      },
      {
        "astId": 2738,
        "contract": "contracts/YourContract.sol:YourContract",
        "label": "_nonces",
        "offset": 0,
        "slot": "11",
        "type": "t_mapping(t_address,t_uint256)"
      },
      {
        "astId": 501,
        "contract": "contracts/YourContract.sol:YourContract",
        "label": "_delegatee",
        "offset": 0,
        "slot": "12",
        "type": "t_mapping(t_address,t_address)"
      },
      {
        "astId": 506,
        "contract": "contracts/YourContract.sol:YourContract",
        "label": "_delegateCheckpoints",
        "offset": 0,
        "slot": "13",
        "type": "t_mapping(t_address,t_struct(Trace208)9459_storage)"
      },
      {
        "astId": 509,
        "contract": "contracts/YourContract.sol:YourContract",
        "label": "_totalCheckpoints",
        "offset": 0,
        "slot": "14",
        "type": "t_struct(Trace208)9459_storage"
      },
      {
        "astId": 10819,
        "contract": "contracts/YourContract.sol:YourContract",
        "label": "_nextTokenId",
        "offset": 0,
        "slot": "15",
        "type": "t_uint256"
      }
    ],
    "types": {
      "t_address": {
        "encoding": "inplace",
        "label": "address",
        "numberOfBytes": "20"
      },
      "t_array(t_struct(Checkpoint208)9464_storage)dyn_storage": {
        "base": "t_struct(Checkpoint208)9464_storage",
        "encoding": "dynamic_array",
        "label": "struct Checkpoints.Checkpoint208[]",
        "numberOfBytes": "32"
      },
      "t_bool": {
        "encoding": "inplace",
        "label": "bool",
        "numberOfBytes": "1"
      },
      "t_bytes32": {
        "encoding": "inplace",
        "label": "bytes32",
        "numberOfBytes": "32"
      },
      "t_mapping(t_address,t_address)": {
        "encoding": "mapping",
        "key": "t_address",
        "label": "mapping(address => address)",
        "numberOfBytes": "32",
        "value": "t_address"
      },
      "t_mapping(t_address,t_bool)": {
        "encoding": "mapping",
        "key": "t_address",
        "label": "mapping(address => bool)",
        "numberOfBytes": "32",
        "value": "t_bool"
      },
      "t_mapping(t_address,t_mapping(t_address,t_bool))": {
        "encoding": "mapping",
        "key": "t_address",
        "label": "mapping(address => mapping(address => bool))",
        "numberOfBytes": "32",
        "value": "t_mapping(t_address,t_bool)"
      },
      "t_mapping(t_address,t_struct(Trace208)9459_storage)": {
        "encoding": "mapping",
        "key": "t_address",
        "label": "mapping(address => struct Checkpoints.Trace208)",
        "numberOfBytes": "32",
        "value": "t_struct(Trace208)9459_storage"
      },
      "t_mapping(t_address,t_uint256)": {
        "encoding": "mapping",
        "key": "t_address",
        "label": "mapping(address => uint256)",
        "numberOfBytes": "32",
        "value": "t_uint256"
      },
      "t_mapping(t_bytes32,t_struct(RoleData)21_storage)": {
        "encoding": "mapping",
        "key": "t_bytes32",
        "label": "mapping(bytes32 => struct AccessControl.RoleData)",
        "numberOfBytes": "32",
        "value": "t_struct(RoleData)21_storage"
      },
      "t_mapping(t_uint256,t_address)": {
        "encoding": "mapping",
        "key": "t_uint256",
        "label": "mapping(uint256 => address)",
        "numberOfBytes": "32",
        "value": "t_address"
      },
      "t_mapping(t_uint256,t_string_storage)": {
        "encoding": "mapping",
        "key": "t_uint256",
        "label": "mapping(uint256 => string)",
        "numberOfBytes": "32",
        "value": "t_string_storage"
      },
      "t_string_storage": {
        "encoding": "bytes",
        "label": "string",
        "numberOfBytes": "32"
      },
      "t_struct(Checkpoint208)9464_storage": {
        "encoding": "inplace",
        "label": "struct Checkpoints.Checkpoint208",
        "members": [
          {
            "astId": 9461,
            "contract": "contracts/YourContract.sol:YourContract",
            "label": "_key",
            "offset": 0,
            "slot": "0",
            "type": "t_uint48"
          },
          {
            "astId": 9463,
            "contract": "contracts/YourContract.sol:YourContract",
            "label": "_value",
            "offset": 6,
            "slot": "0",
            "type": "t_uint208"
          }
        ],
        "numberOfBytes": "32"
      },
      "t_struct(RoleData)21_storage": {
        "encoding": "inplace",
        "label": "struct AccessControl.RoleData",
        "members": [
          {
            "astId": 18,
            "contract": "contracts/YourContract.sol:YourContract",
            "label": "hasRole",
            "offset": 0,
            "slot": "0",
            "type": "t_mapping(t_address,t_bool)"
          },
          {
            "astId": 20,
            "contract": "contracts/YourContract.sol:YourContract",
            "label": "adminRole",
            "offset": 0,
            "slot": "1",
            "type": "t_bytes32"
          }
        ],
        "numberOfBytes": "64"
      },
      "t_struct(Trace208)9459_storage": {
        "encoding": "inplace",
        "label": "struct Checkpoints.Trace208",
        "members": [
          {
            "astId": 9458,
            "contract": "contracts/YourContract.sol:YourContract",
            "label": "_checkpoints",
            "offset": 0,
            "slot": "0",
            "type": "t_array(t_struct(Checkpoint208)9464_storage)dyn_storage"
          }
        ],
        "numberOfBytes": "32"
      },
      "t_uint208": {
        "encoding": "inplace",
        "label": "uint208",
        "numberOfBytes": "26"
      },
      "t_uint256": {
        "encoding": "inplace",
        "label": "uint256",
        "numberOfBytes": "32"
      },
      "t_uint48": {
        "encoding": "inplace",
        "label": "uint48",
        "numberOfBytes": "6"
      }
    }
  }
}